{"abi":[{"type":"constructor","inputs":[{"name":"_eventId","type":"uint256","internalType":"uint256"},{"name":"_eventFactoryAddress","type":"address","internalType":"address"},{"name":"_creator","type":"address","internalType":"address"},{"name":"_ticketsAmount","type":"uint256","internalType":"uint256"},{"name":"_ticketPrice","type":"uint256","internalType":"uint256"},{"name":"_artCategory","type":"string","internalType":"string"},{"name":"_treasuryReceiver","type":"address","internalType":"address"}],"stateMutability":"nonpayable"},{"type":"function","name":"approve","inputs":[{"name":"to","type":"address","internalType":"address"},{"name":"tokenId","type":"uint256","internalType":"uint256"}],"outputs":[],"stateMutability":"nonpayable"},{"type":"function","name":"artCategory","inputs":[],"outputs":[{"name":"","type":"string","internalType":"string"}],"stateMutability":"view"},{"type":"function","name":"balanceOf","inputs":[{"name":"owner","type":"address","internalType":"address"}],"outputs":[{"name":"","type":"uint256","internalType":"uint256"}],"stateMutability":"view"},{"type":"function","name":"creator","inputs":[],"outputs":[{"name":"","type":"address","internalType":"address"}],"stateMutability":"view"},{"type":"function","name":"currentTicketId","inputs":[],"outputs":[{"name":"","type":"uint256","internalType":"uint256"}],"stateMutability":"view"},{"type":"function","name":"eventFactoryAddress","inputs":[],"outputs":[{"name":"","type":"address","internalType":"address"}],"stateMutability":"view"},{"type":"function","name":"eventId","inputs":[],"outputs":[{"name":"","type":"uint256","internalType":"uint256"}],"stateMutability":"view"},{"type":"function","name":"eventMetadataURI","inputs":[],"outputs":[{"name":"","type":"string","internalType":"string"}],"stateMutability":"view"},{"type":"function","name":"getApproved","inputs":[{"name":"tokenId","type":"uint256","internalType":"uint256"}],"outputs":[{"name":"","type":"address","internalType":"address"}],"stateMutability":"view"},{"type":"function","name":"getEventMetadata","inputs":[],"outputs":[{"name":"","type":"string","internalType":"string"}],"stateMutability":"view"},{"type":"function","name":"getSalesInfo","inputs":[],"outputs":[{"name":"totalTickets","type":"uint256","internalType":"uint256"},{"name":"soldTickets","type":"uint256","internalType":"uint256"},{"name":"remainingTickets","type":"uint256","internalType":"uint256"},{"name":"price","type":"uint256","internalType":"uint256"},{"name":"artCategory_","type":"string","internalType":"string"}],"stateMutability":"view"},{"type":"function","name":"getTicketInfo","inputs":[{"name":"ticketId","type":"uint256","internalType":"uint256"}],"outputs":[{"name":"eventId_","type":"uint256","internalType":"uint256"},{"name":"owner","type":"address","internalType":"address"},{"name":"originalOwner","type":"address","internalType":"address"},{"name":"purchasePrice","type":"uint256","internalType":"uint256"},{"name":"purchaseTimestamp","type":"uint256","internalType":"uint256"},{"name":"name","type":"string","internalType":"string"},{"name":"artCategory_","type":"string","internalType":"string"},{"name":"metadataURI","type":"string","internalType":"string"},{"name":"ticketNumber","type":"uint256","internalType":"uint256"},{"name":"totalTickets","type":"uint256","internalType":"uint256"}],"stateMutability":"view"},{"type":"function","name":"getUserTickets","inputs":[{"name":"user","type":"address","internalType":"address"}],"outputs":[{"name":"","type":"uint256[]","internalType":"uint256[]"}],"stateMutability":"view"},{"type":"function","name":"hasTicket","inputs":[{"name":"","type":"address","internalType":"address"}],"outputs":[{"name":"","type":"bool","internalType":"bool"}],"stateMutability":"view"},{"type":"function","name":"hasTicketForEvent","inputs":[{"name":"user","type":"address","internalType":"address"},{"name":"_eventId","type":"uint256","internalType":"uint256"}],"outputs":[{"name":"","type":"bool","internalType":"bool"}],"stateMutability":"view"},{"type":"function","name":"isApprovedForAll","inputs":[{"name":"owner","type":"address","internalType":"address"},{"name":"operator","type":"address","internalType":"address"}],"outputs":[{"name":"","type":"bool","internalType":"bool"}],"stateMutability":"view"},{"type":"function","name":"isAvailable","inputs":[],"outputs":[{"name":"","type":"bool","internalType":"bool"}],"stateMutability":"view"},{"type":"function","name":"name","inputs":[],"outputs":[{"name":"","type":"string","internalType":"string"}],"stateMutability":"view"},{"type":"function","name":"owner","inputs":[],"outputs":[{"name":"","type":"address","internalType":"address"}],"stateMutability":"view"},{"type":"function","name":"ownerOf","inputs":[{"name":"tokenId","type":"uint256","internalType":"uint256"}],"outputs":[{"name":"","type":"address","internalType":"address"}],"stateMutability":"view"},{"type":"function","name":"purchaseTicket","inputs":[],"outputs":[{"name":"ticketId","type":"uint256","internalType":"uint256"}],"stateMutability":"payable"},{"type":"function","name":"renounceOwnership","inputs":[],"outputs":[],"stateMutability":"nonpayable"},{"type":"function","name":"safeTransferFrom","inputs":[{"name":"from","type":"address","internalType":"address"},{"name":"to","type":"address","internalType":"address"},{"name":"tokenId","type":"uint256","internalType":"uint256"}],"outputs":[],"stateMutability":"nonpayable"},{"type":"function","name":"safeTransferFrom","inputs":[{"name":"from","type":"address","internalType":"address"},{"name":"to","type":"address","internalType":"address"},{"name":"tokenId","type":"uint256","internalType":"uint256"},{"name":"data","type":"bytes","internalType":"bytes"}],"outputs":[],"stateMutability":"nonpayable"},{"type":"function","name":"setApprovalForAll","inputs":[{"name":"operator","type":"address","internalType":"address"},{"name":"approved","type":"bool","internalType":"bool"}],"outputs":[],"stateMutability":"nonpayable"},{"type":"function","name":"supportsInterface","inputs":[{"name":"interfaceId","type":"bytes4","internalType":"bytes4"}],"outputs":[{"name":"","type":"bool","internalType":"bool"}],"stateMutability":"view"},{"type":"function","name":"symbol","inputs":[],"outputs":[{"name":"","type":"string","internalType":"string"}],"stateMutability":"view"},{"type":"function","name":"ticketPrice","inputs":[],"outputs":[{"name":"","type":"uint256","internalType":"uint256"}],"stateMutability":"view"},{"type":"function","name":"tickets","inputs":[{"name":"","type":"uint256","internalType":"uint256"}],"outputs":[{"name":"eventId","type":"uint256","internalType":"uint256"},{"name":"ticketId","type":"uint256","internalType":"uint256"},{"name":"originalOwner","type":"address","internalType":"address"},{"name":"purchasePrice","type":"uint256","internalType":"uint256"},{"name":"purchaseTimestamp","type":"uint256","internalType":"uint256"},{"name":"name","type":"string","internalType":"string"},{"name":"artCategory","type":"string","internalType":"string"},{"name":"ticketNumber","type":"uint256","internalType":"uint256"},{"name":"totalTickets","type":"uint256","internalType":"uint256"}],"stateMutability":"view"},{"type":"function","name":"ticketsAmount","inputs":[],"outputs":[{"name":"","type":"uint256","internalType":"uint256"}],"stateMutability":"view"},{"type":"function","name":"ticketsSold","inputs":[],"outputs":[{"name":"","type":"uint256","internalType":"uint256"}],"stateMutability":"view"},{"type":"function","name":"tokenURI","inputs":[{"name":"tokenId","type":"uint256","internalType":"uint256"}],"outputs":[{"name":"","type":"string","internalType":"string"}],"stateMutability":"view"},{"type":"function","name":"totalSupply","inputs":[],"outputs":[{"name":"","type":"uint256","internalType":"uint256"}],"stateMutability":"view"},{"type":"function","name":"transferFrom","inputs":[{"name":"from","type":"address","internalType":"address"},{"name":"to","type":"address","internalType":"address"},{"name":"tokenId","type":"uint256","internalType":"uint256"}],"outputs":[],"stateMutability":"nonpayable"},{"type":"function","name":"transferOwnership","inputs":[{"name":"newOwner","type":"address","internalType":"address"}],"outputs":[],"stateMutability":"nonpayable"},{"type":"function","name":"treasuryReceiver","inputs":[],"outputs":[{"name":"","type":"address","internalType":"address"}],"stateMutability":"view"},{"type":"function","name":"updateMetadata","inputs":[{"name":"newMetadataURI","type":"string","internalType":"string"}],"outputs":[],"stateMutability":"nonpayable"},{"type":"function","name":"userTickets","inputs":[{"name":"","type":"address","internalType":"address"},{"name":"","type":"uint256","internalType":"uint256"}],"outputs":[{"name":"","type":"uint256","internalType":"uint256"}],"stateMutability":"view"},{"type":"event","name":"Approval","inputs":[{"name":"owner","type":"address","indexed":true,"internalType":"address"},{"name":"approved","type":"address","indexed":true,"internalType":"address"},{"name":"tokenId","type":"uint256","indexed":true,"internalType":"uint256"}],"anonymous":false},{"type":"event","name":"ApprovalForAll","inputs":[{"name":"owner","type":"address","indexed":true,"internalType":"address"},{"name":"operator","type":"address","indexed":true,"internalType":"address"},{"name":"approved","type":"bool","indexed":false,"internalType":"bool"}],"anonymous":false},{"type":"event","name":"BatchMetadataUpdate","inputs":[{"name":"_fromTokenId","type":"uint256","indexed":false,"internalType":"uint256"},{"name":"_toTokenId","type":"uint256","indexed":false,"internalType":"uint256"}],"anonymous":false},{"type":"event","name":"MetadataUpdate","inputs":[{"name":"_tokenId","type":"uint256","indexed":false,"internalType":"uint256"}],"anonymous":false},{"type":"event","name":"OwnershipTransferred","inputs":[{"name":"previousOwner","type":"address","indexed":true,"internalType":"address"},{"name":"newOwner","type":"address","indexed":true,"internalType":"address"}],"anonymous":false},{"type":"event","name":"RevenueDistributed","inputs":[{"name":"creator","type":"address","indexed":true,"internalType":"address"},{"name":"treasury","type":"address","indexed":true,"internalType":"address"},{"name":"creatorAmount","type":"uint256","indexed":false,"internalType":"uint256"},{"name":"treasuryAmount","type":"uint256","indexed":false,"internalType":"uint256"}],"anonymous":false},{"type":"event","name":"TicketMinted","inputs":[{"name":"ticketId","type":"uint256","indexed":true,"internalType":"uint256"},{"name":"buyer","type":"address","indexed":true,"internalType":"address"},{"name":"ticketName","type":"string","indexed":false,"internalType":"string"},{"name":"artCategory","type":"string","indexed":false,"internalType":"string"},{"name":"price","type":"uint256","indexed":false,"internalType":"uint256"}],"anonymous":false},{"type":"event","name":"Transfer","inputs":[{"name":"from","type":"address","indexed":true,"internalType":"address"},{"name":"to","type":"address","indexed":true,"internalType":"address"},{"name":"tokenId","type":"uint256","indexed":true,"internalType":"uint256"}],"anonymous":false},{"type":"error","name":"ERC721IncorrectOwner","inputs":[{"name":"sender","type":"address","internalType":"address"},{"name":"tokenId","type":"uint256","internalType":"uint256"},{"name":"owner","type":"address","internalType":"address"}]},{"type":"error","name":"ERC721InsufficientApproval","inputs":[{"name":"operator","type":"address","internalType":"address"},{"name":"tokenId","type":"uint256","internalType":"uint256"}]},{"type":"error","name":"ERC721InvalidApprover","inputs":[{"name":"approver","type":"address","internalType":"address"}]},{"type":"error","name":"ERC721InvalidOperator","inputs":[{"name":"operator","type":"address","internalType":"address"}]},{"type":"error","name":"ERC721InvalidOwner","inputs":[{"name":"owner","type":"address","internalType":"address"}]},{"type":"error","name":"ERC721InvalidReceiver","inputs":[{"name":"receiver","type":"address","internalType":"address"}]},{"type":"error","name":"ERC721InvalidSender","inputs":[{"name":"sender","type":"address","internalType":"address"}]},{"type":"error","name":"ERC721NonexistentToken","inputs":[{"name":"tokenId","type":"uint256","internalType":"uint256"}]},{"type":"error","name":"OwnableInvalidOwner","inputs":[{"name":"owner","type":"address","internalType":"address"}]},{"type":"error","name":"OwnableUnauthorizedAccount","inputs":[{"name":"account","type":"address","internalType":"address"}]},{"type":"error","name":"ReentrancyGuardReentrantCall","inputs":[]}],"bytecode":{"object":"0x6080806040523461073b57612ab0803803809161001c828561073f565b8339810160e08282031261073b5781519061003960208401610762565b61004560408501610762565b9260608501519160808601519360a08701519060018060401b03821161073b5761007660c09161007d938a01610791565b9701610762565b946020806100f0600861008f876107d7565b60298461009b8b6107d7565b604051968794685254415f4b696f736b60b81b828701528051918291018587015e84019067205469636b65747360c01b84830152805192839101603183015e01015f838201520301601f19810183528261073f565b61012f60236100fe876107d7565b6040519485916252544160e81b828401528051918291018484015e81015f838201520301601f19810184528361073f565b8051906001600160401b03821161046d575f5490600182811c92168015610731575b602083101461044f5781601f8493116106c4575b50602090601f8311600114610661575f92610656575b50508160011b915f199060031b1c1916175f555b8051906001600160401b03821161046d5760015490600182811c9216801561064c575b602083101461044f5781601f8493116105de575b50602090601f8311600114610578575f9261056d575b50508160011b915f199060031b1c1916176001555b60016007556001600160a01b031691821561055a57600880546001600160a01b03198116851790915583906001600160a01b03167f8be0079c531659141344cd1fd0a4f28419497f9722a3daafe3b4186f6b6457e05f80a3600955600a80546001600160a01b03929092166001600160a01b0319928316179055600b805490911691909117905560125560135581516001600160401b03811161046d57600d54600181811c91168015610550575b602082101461044f57601f81116104ed575b50602092601f821160011461048c57928192935f92610481575b50508160011b915f199060031b1c191617600d555b600c80546001600160a01b0319166001600160a01b039290921691909117905560016011555f6014556103116108df565b80516001600160401b03811161046d57601554600181811c91168015610463575b602082101461044f57601f81116103ec575b50602091601f821160011461038c579181925f92610381575b50508160011b915f199060031b1c1916176015555b60405161210590816109ab8239f35b015190505f8061035d565b601f1982169260155f52805f20915f5b8581106103d4575083600195106103bc575b505050811b01601555610372565b01515f1960f88460031b161c191690555f80806103ae565b9192602060018192868501518155019401920161039c565b60155f527f55f448fdea98c4d29eb340757ef0a66cd03dbb9538908a6a81d96026b71ec475601f830160051c81019160208410610445575b601f0160051c01905b81811061043a5750610344565b5f815560010161042d565b9091508190610424565b634e487b7160e01b5f52602260045260245ffd5b90607f1690610332565b634e487b7160e01b5f52604160045260245ffd5b015190505f806102cb565b601f19821693600d5f52805f20915f5b8681106104d557508360019596106104bd575b505050811b01600d556102e0565b01515f1960f88460031b161c191690555f80806104af565b9192602060018192868501518155019401920161049c565b600d5f527fd7b6990105719101dabeb77144f2a3385c8033acd3af97e9423a695e81ad1eb5601f830160051c81019160208410610546575b601f0160051c01905b81811061053b57506102b1565b5f815560010161052e565b9091508190610525565b90607f169061029f565b631e4fbdf760e01b5f525f60045260245ffd5b015190505f806101dc565b60015f9081528281209350601f198516905b8181106105c657509084600195949392106105ae575b505050811b016001556101f1565b01515f1960f88460031b161c191690555f80806105a0565b9293602060018192878601518155019501930161058a565b60015f529091507fb10e2d527612073b26eecdfd717e6a320cf44b4afac2b0732d9fcbe2b7fa0cf6601f840160051c81019160208510610642575b90601f859493920160051c01905b81811061063457506101c6565b5f8155849350600101610627565b9091508190610619565b91607f16916101b2565b015190505f8061017b565b5f8080528281209350601f198516905b8181106106ac5750908460019594939210610694575b505050811b015f5561018f565b01515f1960f88460031b161c191690555f8080610687565b92936020600181928786015181550195019301610671565b5f80529091507f290decd9548b62a8d60345a988386fc84ba6bc95484008f6362f93160ef3e563601f840160051c81019160208510610727575b90601f859493920160051c01905b8181106107195750610165565b5f815584935060010161070c565b90915081906106fe565b91607f1691610151565b5f80fd5b601f909101601f19168101906001600160401b0382119082101761046d57604052565b51906001600160a01b038216820361073b57565b6001600160401b03811161046d57601f01601f191660200190565b81601f8201121561073b578051906107a882610776565b926107b6604051948561073f565b8284526020838301011161073b57815f9260208093018386015e8301015290565b80156108bf575f81805b6108a857506107ef81610776565b906107fd604051928361073f565b808252601f1961080c82610776565b013660208401375b809280156108a1575f19820191821161088d578193600a8206603001928360301161088d578451111561087957600a9260f81b7fff00000000000000000000000000000000000000000000000000000000000000165f1a908401601f01530491610814565b634e487b7160e01b5f52603260045260245ffd5b634e487b7160e01b5f52601160045260245ffd5b5050905090565b905f19811461088d576001600a91019104806107e1565b506040516108ce60408261073f565b60018152600360fc1b602082015290565b5f8060018060a01b03600a5416600954604051602081019163c87b56dd60e01b835260248201526024815261091560448261073f565b51915afa3d156109a2573d9061092a82610776565b91610938604051938461073f565b82523d5f602084013e5b80610998575b610961575060405161095b60208261073f565b5f815290565b805181019060208183031261073b576020810151916001600160401b03831161073b57610995926020809201920101610791565b90565b5080511515610948565b60609061094256fe6080806040526004361015610012575f80fd5b5f3560e01c90816301ffc9a71461178a5750806302d05d3f1461176257806304056d1f14610bd95780630484a22f146116ae57806306fdde031461160c578063081812fc146115d0578063089cdd0c146115b357806308b1fd8f1461158b578063095ea7b3146114a15780631209b1f61461148457806318160ddd1461095557806319ce5ee11461141d5780631f2942f3146113fa57806321846c7614610c3757806323b872dd14610c205780632821bab814610c035780632955e09514610bd957806342842e0e14610bb057806350b4471214610adc5780635c48cb2814610ab45780636352211e14610a84578063686465b814610a6757806370a0823114610a16578063715018a6146109bb578063856c71dd1461099a5780638da5cb5b146109725780638f15024f14610955578063918b5be11461070257806395d89b411461063857806395dad48a146105bb578063a22cb46514610520578063b88d4fde146104be578063c87b56dd14610487578063cf260baf1461042f578063e2142fde146103f2578063e985e9c51461039b578063f2fde38b146103155763ff99a063146101be575f80fd5b34610311576020366003190112610311576004355f818152600260205260409020546001600160a01b0316156102d457805f52600e60205260405f2080549061020683611dee565b926102c360018060a01b03600284015416916102b560066102a7600387015496610234600482015495612075565b94600782015498600883015498610270604051946102608661025981600585016119a6565b0387611a27565b61025960405180998193016119a6565b6040519c8d9c8d5260018060a01b031660208d015260408c015260608b015260808a015261014060a08a015261014089019061180f565b9087820360c089015261180f565b9085820360e087015261180f565b916101008401526101208301520390f35b60405162461bcd60e51b8152602060048201526015602482015274151a58dad95d08191bd95cc81b9bdd08195e1a5cdd605a1b6044820152606490fd5b5f80fd5b346103115760203660031901126103115761032e611833565b61033661204e565b6001600160a01b0316801561038857600880546001600160a01b0319811683179091556001600160a01b03167f8be0079c531659141344cd1fd0a4f28419497f9722a3daafe3b4186f6b6457e05f80a3005b631e4fbdf760e01b5f525f60045260245ffd5b34610311576040366003190112610311576103b4611833565b6103bc611849565b9060018060a01b03165f52600560205260405f209060018060a01b03165f52602052602060ff60405f2054166040519015158152f35b34610311576020366003190112610311576001600160a01b03610413611833565b165f526010602052602060ff60405f2054166040519015158152f35b3461031157604036600319011261031157610448611833565b6001600160a01b03165f908152600f60205260409020805460243591908210156103115760209161047891611ad5565b90549060031b1c604051908152f35b34610311576020366003190112610311576104ba6104a6600435612075565b60405191829160208352602083019061180f565b0390f35b34610311576080366003190112610311576104d7611833565b6104df611849565b6064359167ffffffffffffffff831161031157366023840112156103115761051461051e933690602481600401359101611a9f565b9160443591611cd5565b005b3461031157604036600319011261031157610539611833565b60243590811515809203610311576001600160a01b03169081156105a857335f52600560205260405f20825f5260205260405f2060ff1981541660ff83161790556040519081527f17307eab39ab6107e8899845ad3d59bd9653f200f220920489ca2b5937696c3160203392a3005b50630b61174360e31b5f5260045260245ffd5b34610311576040366003190112610311576105d4611833565b600954602435036106025760018060a01b03165f526010602052602060ff60405f2054166040519015158152f35b60405162461bcd60e51b815260206004820152600e60248201526d15dc9bdb99c8195d995b9d08125160921b6044820152606490fd5b34610311575f366003190112610311576040515f6001546106588161185f565b80845290600181169081156106de5750600114610680575b6104ba836104a681850382611a27565b60015f9081527fb10e2d527612073b26eecdfd717e6a320cf44b4afac2b0732d9fcbe2b7fa0cf6939250905b8082106106c4575090915081016020016104a6610670565b9192600181602092548385880101520191019092916106ac565b60ff191660208086019190915291151560051b840190910191506104a69050610670565b346103115760203660031901126103115760043567ffffffffffffffff8111610311573660238201121561031157610744903690602481600401359101611a9f565b600a546001600160a01b031633148015610941575b156108e557805167ffffffffffffffff81116108d15761077a60155461185f565b601f8111610869575b50806020601f82116001146107fa575f916107ef575b508160011b915f199060031b1c1916176015555b60015b60115481101561051e575f81815260026020526040902054600191906001600160a01b03166107e0575b016107b0565b6107ea8382611ee7565b6107da565b905082015183610799565b60155f9081525f5160206120b05f395f51905f529250601f198416905b81811061085157509083600194939210610839575b5050811b016015556107ad565b8401515f1960f88460031b161c19169055838061082c565b91926020600181928689015181550194019201610817565b60155f52601f820160051c5f5160206120b05f395f51905f520190602083106108bc575b601f0160051c5f5160206120b05f395f51905f5201905b8181106108b15750610783565b5f81556001016108a4565b5f5160206120b05f395f51905f52915061088d565b634e487b7160e01b5f52604160045260245ffd5b60405162461bcd60e51b815260206004820152602e60248201527f4f6e6c79204576656e74466163746f7279206f72206f776e65722063616e207560448201526d7064617465206d6574616461746160901b6064820152608490fd5b506008546001600160a01b03163314610759565b34610311575f366003190112610311576020601454604051908152f35b34610311575f366003190112610311576008546040516001600160a01b039091168152602090f35b34610311575f36600319011261031157602060145460125411604051908152f35b34610311575f366003190112610311576109d361204e565b600880546001600160a01b031981169091555f906001600160a01b03167f8be0079c531659141344cd1fd0a4f28419497f9722a3daafe3b4186f6b6457e08280a3005b34610311576020366003190112610311576001600160a01b03610a37611833565b168015610a54575f526003602052602060405f2054604051908152f35b6322718ad960e21b5f525f60045260245ffd5b34610311575f366003190112610311576020601154604051908152f35b34610311576020366003190112610311576020610aa2600435611dee565b6040516001600160a01b039091168152f35b34610311575f36600319011261031157600a546040516001600160a01b039091168152602090f35b34610311576020366003190112610311576004355f52600e60205260405f20805460018201549160018060a01b03600282015416610ba06003830154610b92600485015460405190610b3c82610b358160058b016119a6565b0383611a27565b60405193610b5885610b518160068c016119a6565b0386611a27565b60086007890154980154966040519a8b9a8b5260208b015260408a01526060890152608088015261012060a088015261012087019061180f565b9085820360c087015261180f565b9160e08401526101008301520390f35b346103115761051e610bc136611a49565b9060405192610bd1602085611a27565b5f8452611cd5565b34610311575f366003190112610311576104ba6040516104a681610bfc81611897565b0382611a27565b34610311575f366003190112610311576020601254604051908152f35b346103115761051e610c3136611a49565b91611b48565b5f366003190112610311576002600754146113eb57600260075560145460125411156113b357601354341061137757601154610c7281611b0b565b6011556020610ce16007610c87600954611e22565b602384610c9387611e22565b6040519687946272746160e81b828701528051918291018587015e8401906617dd1a58dad95d60ca1b84830152805192839101602a83015e01015f838201520301601f198101835282611a27565b3315611364575f828152600260205260409020546001600160a01b03168015159081611331575b335f818152600360209081526040808320805460010190558783526002909152812080546001600160a01b0319168317905585919083907fddf252ad1be2c89b69c2b068fc378daa952ba7f163c4a11628f55a4df523b3ef9080a45061131e57610d81604051610d7b81610bfc81611897565b83611ee7565b600954916013549260145460018101809111611195576012549060405192610120840184811067ffffffffffffffff8211176108d15760405283526020830195848752604084019033825260608501908152608085019042825260a086019288845260405199610dfb8b610df481611923565b038c611a27565b60c088019a8b5260e0880195865261010088019687525f898152600e6020526040902097518855516001880155516002870180546001600160a01b0319166001600160a01b0392909216919091179055516003860155516004850155518051600585019167ffffffffffffffff82116108d1578190610e7a845461185f565b601f81116112ce575b50602090601f831160011461126b575f92611260575b50508160011b915f199060031b1c19161790555b60068301955195865167ffffffffffffffff81116108d157610ecf825461185f565b601f811161121b575b506020601f82116001146111b45781906008969798995f926111a9575b50508160011b915f199060031b1c19161790555b51600784015551910155335f52600f60205260405f208054680100000000000000008110156108d157610f4191600182018155611ad5565b81549060031b9083821b915f19901b1916179055335f52601060205260405f20600160ff19825416179055610f77601454611b0b565b6014556013546050810281810460501482151715611195576064610f9d91048092611afe565b905f8115818115611174575b8415918215611151575b8115611149575b501561110b578115611103575b50156110be57601354803411611086575b50602093837f28b82938d4440e73de6999c62715a66c806f695010c3c365a78c5ff27c02ba2e6013549261102661101a6040519260608452606084019061180f565b8281038a840152611923565b9360408201528033940390a3600b54600c5460408051938452868401949094526001600160a01b03908116939116917fbf51b4987ea2011a1d8ec7becfb572cd41971188ba756f230a2cd4bd6b83f1409190a36001600755604051908152f35b5f8080611094819434611afe565b8181156110b5575b3390f1156110aa5784610fd8565b6040513d5f823e3d90fd5b506108fc61109c565b60405162461bcd60e51b815260206004820152601760248201527f5472656173757279207061796d656e74206661696c65640000000000000000006044820152606490fd5b905085610fc7565b60405162461bcd60e51b815260206004820152601660248201527510dc99585d1bdc881c185e5b595b9d0819985a5b195960521b6044820152606490fd5b905087610fba565b92505f8080808860018060a01b03600c54165af161116d611b19565b5092610fb3565b505f8080808660018060a01b03600b54165af161118f611b19565b50610fa9565b634e487b7160e01b5f52601160045260245ffd5b015190508980610ef5565b601f19821698835f52815f20995f5b81811061120357509160089798999a918460019594106111eb575b505050811b019055610f09565b01515f1960f88460031b161c191690558980806111de565b838301518c556001909b019a602093840193016111c3565b825f5260205f20601f830160051c81019160208410611256575b601f0160051c01905b81811061124b5750610ed8565b5f815560010161123e565b9091508190611235565b015190508980610e99565b5f8581528281209350601f198516905b8181106112b6575090846001959493921061129e575b505050811b019055610ead565b01515f1960f88460031b161c19169055898080611291565b9293602060018192878601518155019501930161127b565b909150835f5260205f20601f840160051c81019160208510611314575b90601f859493920160051c01905b8181106113065750610e83565b5f81558493506001016112f9565b90915081906112eb565b6339e3563760e11b5f525f60045260245ffd5b5f84815260046020526040902080546001600160a01b0319169055805f52600360205260405f205f198154019055610d08565b633250574960e11b5f525f60045260245ffd5b60405162461bcd60e51b8152602060048201526014602482015273125b9cdd59999a58da595b9d081c185e5b595b9d60621b6044820152606490fd5b60405162461bcd60e51b815260206004820152601060248201526f105b1b081d1a58dad95d1cc81cdbdb1960821b6044820152606490fd5b633ee5aeb560e01b5f5260045ffd5b34610311575f366003190112610311576104ba6040516104a681610bfc81611923565b34610311575f36600319011261031157601254601454906104ba6114418383611afe565b6013546040519161145c8361145581611923565b0384611a27565b604051958695865260208601526040850152606084015260a0608084015260a083019061180f565b34610311575f366003190112610311576020601354604051908152f35b34610311576040366003190112610311576114ba611833565b6024356114c681611dee565b33151580611578575b8061154b575b6115385781906001600160a01b0384811691167f8c5be1e5ebec7d5bd14f71427d1e84f3dd0314c0f7b2291e5b200ac8c7c3b9255f80a45f90815260046020526040902080546001600160a01b0319166001600160a01b03909216919091179055005b63a9fbf51f60e01b5f523360045260245ffd5b506001600160a01b0381165f90815260056020908152604080832033845290915290205460ff16156114d5565b506001600160a01b0381163314156114cf565b34610311575f36600319011261031157600c546040516001600160a01b039091168152602090f35b34610311575f366003190112610311576020600954604051908152f35b34610311576020366003190112610311576004356115ed81611dee565b505f526004602052602060018060a01b0360405f205416604051908152f35b34610311575f366003190112610311576040515f5f5461162b8161185f565b80845290600181169081156106de5750600114611652576104ba836104a681850382611a27565b5f8080527f290decd9548b62a8d60345a988386fc84ba6bc95484008f6362f93160ef3e563939250905b808210611694575090915081016020016104a6610670565b91926001816020925483858801015201910190929161167c565b34610311576020366003190112610311576001600160a01b036116cf611833565b165f52600f60205260405f20604051806020835491828152019081935f5260205f20905f5b81811061174c575050508161170a910382611a27565b604051918291602083019060208452518091526040830191905f5b818110611733575050500390f35b8251845285945060209384019390920191600101611725565b82548452602090930192600192830192016116f4565b34610311575f36600319011261031157600b546040516001600160a01b039091168152602090f35b34610311576020366003190112610311576004359063ffffffff60e01b821680920361031157602091632483248360e11b81149081156117cc575b5015158152f35b6380ac58cd60e01b8114915081156117fe575b81156117ed575b50836117c5565b6301ffc9a760e01b149050836117e6565b635b5e139f60e01b811491506117df565b805180835260209291819084018484015e5f828201840152601f01601f1916010190565b600435906001600160a01b038216820361031157565b602435906001600160a01b038216820361031157565b90600182811c9216801561188d575b602083101461187957565b634e487b7160e01b5f52602260045260245ffd5b91607f169161186e565b6015545f92916118a68261185f565b808252916001811690811561190757506001146118c1575050565b60155f9081529293509091905f5160206120b05f395f51905f525b8383106118ed575060209250010190565b6001816020929493945483858701015201910191906118dc565b9050602093945060ff929192191683830152151560051b010190565b600d545f92916119328261185f565b8082529160018116908115611907575060011461194d575050565b600d5f9081529293509091907fd7b6990105719101dabeb77144f2a3385c8033acd3af97e9423a695e81ad1eb55b83831061198c575060209250010190565b60018160209294939454838587010152019101919061197b565b5f92918154916119b58361185f565b8083529260018116908115611a0a57506001146119d157505050565b5f9081526020812093945091925b8383106119f0575060209250010190565b6001816020929493945483858701015201910191906119df565b915050602093945060ff929192191683830152151560051b010190565b90601f8019910116810190811067ffffffffffffffff8211176108d157604052565b6060906003190112610311576004356001600160a01b038116810361031157906024356001600160a01b0381168103610311579060443590565b67ffffffffffffffff81116108d157601f01601f191660200190565b929192611aab82611a83565b91611ab96040519384611a27565b829481845281830111610311578281602093845f960137010152565b8054821015611aea575f5260205f2001905f90565b634e487b7160e01b5f52603260045260245ffd5b9190820391821161119557565b5f1981146111955760010190565b3d15611b43573d90611b2a82611a83565b91611b386040519384611a27565b82523d5f602084013e565b606090565b6001600160a01b0390911691908215611364575f828152600260205260409020546001600160a01b031692829033151580611c40575b5084611c0d575b805f52600360205260405f2060018154019055815f52600260205260405f20816bffffffffffffffffffffffff60a01b825416179055847fddf252ad1be2c89b69c2b068fc378daa952ba7f163c4a11628f55a4df523b3ef5f80a46001600160a01b0316808303611bf557505050565b6364283d7b60e01b5f5260045260245260445260645ffd5b5f82815260046020526040902080546001600160a01b0319169055845f52600360205260405f205f198154019055611b85565b90915080611c84575b15611c565782905f611b7e565b8284611c6e57637e27328960e01b5f5260045260245ffd5b63177e802f60e01b5f523360045260245260445ffd5b503384148015611cb3575b80611c4957505f838152600460205260409020546001600160a01b03163314611c49565b505f84815260056020908152604080832033845290915290205460ff16611c8f565b9291611ce2818386611b48565b813b611cef575b50505050565b604051630a85bd0160e11b81523360048201526001600160a01b0394851660248201526044810191909152608060648201529216919060209082908190611d3a90608483019061180f565b03815f865af15f9181611da9575b50611d765750611d56611b19565b80519081611d715782633250574960e11b5f5260045260245ffd5b602001fd5b6001600160e01b03191663757a42ff60e11b01611d9757505f808080611ce9565b633250574960e11b5f5260045260245ffd5b9091506020813d602011611de6575b81611dc560209383611a27565b8101031261031157516001600160e01b03198116810361031157905f611d48565b3d9150611db8565b5f818152600260205260409020546001600160a01b0316908115611e10575090565b637e27328960e01b5f5260045260245ffd5b8015611ec7575f81805b611eb35750611e3a81611a83565b90611e486040519283611a27565b808252601f19611e5782611a83565b013660208401375b80928015611eac575f198201918211611195578193600a820660300192836030116111955784511115611aea57600a9260f81b6001600160f81b0319165f1a908401601f01530491611e5f565b5050905090565b90611ebf600a91611b0b565b910480611e2c565b50604051611ed6604082611a27565b60018152600360fc1b602082015290565b919091805f52600660205260405f20835167ffffffffffffffff81116108d157611f11825461185f565b601f8111612009575b506020601f8211600114611f8157908060209493927ff8e1a15aba9398e019f0b49df1a4fde98ee17ae345cb5f6b5e2c27f5033e8ce796975f92611f76575b50508160011b915f199060031b1c19161790555b604051908152a1565b015190505f80611f59565b601f19821695835f52815f20965f5b818110611ff1575096600192849260209796957ff8e1a15aba9398e019f0b49df1a4fde98ee17ae345cb5f6b5e2c27f5033e8ce7999a10611fd9575b505050811b019055611f6d565b01515f1960f88460031b161c191690555f8080611fcc565b83830151895560019098019760209384019301611f90565b825f5260205f20601f830160051c81019160208410612044575b601f0160051c01905b8181106120395750611f1a565b5f815560010161202c565b9091508190612023565b6008546001600160a01b0316330361206257565b63118cdaa760e01b5f523360045260245ffd5b61207e81611dee565b505f526006602052610bfc61209c60405f20604051928380926119a6565b5f6040516120ab602082611a27565b529056fe55f448fdea98c4d29eb340757ef0a66cd03dbb9538908a6a81d96026b71ec475a26469706673582212209e58435a3f5ef9ce08e46e22de251e07c8294df23384a458f12e96d7e41882a364736f6c634300081c0033","linkReferences":{}},"methodIdentifiers":{"approve(address,uint256)":"095ea7b3","artCategory()":"1f2942f3","balanceOf(address)":"70a08231","creator()":"02d05d3f","currentTicketId()":"686465b8","eventFactoryAddress()":"5c48cb28","eventId()":"089cdd0c","eventMetadataURI()":"2955e095","getApproved(uint256)":"081812fc","getEventMetadata()":"04056d1f","getSalesInfo()":"19ce5ee1","getTicketInfo(uint256)":"ff99a063","getUserTickets(address)":"0484a22f","hasTicket(address)":"e2142fde","hasTicketForEvent(address,uint256)":"95dad48a","isApprovedForAll(address,address)":"e985e9c5","isAvailable()":"856c71dd","name()":"06fdde03","owner()":"8da5cb5b","ownerOf(uint256)":"6352211e","purchaseTicket()":"21846c76","renounceOwnership()":"715018a6","safeTransferFrom(address,address,uint256)":"42842e0e","safeTransferFrom(address,address,uint256,bytes)":"b88d4fde","setApprovalForAll(address,bool)":"a22cb465","supportsInterface(bytes4)":"01ffc9a7","symbol()":"95d89b41","ticketPrice()":"1209b1f6","tickets(uint256)":"50b44712","ticketsAmount()":"2821bab8","ticketsSold()":"8f15024f","tokenURI(uint256)":"c87b56dd","totalSupply()":"18160ddd","transferFrom(address,address,uint256)":"23b872dd","transferOwnership(address)":"f2fde38b","treasuryReceiver()":"08b1fd8f","updateMetadata(string)":"918b5be1","userTickets(address,uint256)":"cf260baf"},"id":73}